{
  "contractName": "QuizMaster",
  "abi": [
    {
      "inputs": [],
      "stateMutability": "nonpayable",
      "type": "constructor"
    },
    {
      "inputs": [
        {
          "internalType": "address",
          "name": "",
          "type": "address"
        },
        {
          "internalType": "uint256",
          "name": "",
          "type": "uint256"
        }
      ],
      "name": "answers",
      "outputs": [
        {
          "internalType": "string",
          "name": "",
          "type": "string"
        }
      ],
      "stateMutability": "view",
      "type": "function",
      "constant": true
    },
    {
      "inputs": [
        {
          "internalType": "address",
          "name": "",
          "type": "address"
        }
      ],
      "name": "marks",
      "outputs": [
        {
          "internalType": "uint256",
          "name": "",
          "type": "uint256"
        }
      ],
      "stateMutability": "view",
      "type": "function",
      "constant": true
    },
    {
      "inputs": [
        {
          "internalType": "address",
          "name": "",
          "type": "address"
        },
        {
          "internalType": "uint256",
          "name": "",
          "type": "uint256"
        }
      ],
      "name": "questions",
      "outputs": [
        {
          "internalType": "string",
          "name": "",
          "type": "string"
        }
      ],
      "stateMutability": "view",
      "type": "function",
      "constant": true
    },
    {
      "inputs": [
        {
          "internalType": "address",
          "name": "",
          "type": "address"
        }
      ],
      "name": "quizCount",
      "outputs": [
        {
          "internalType": "uint256",
          "name": "",
          "type": "uint256"
        }
      ],
      "stateMutability": "view",
      "type": "function",
      "constant": true
    },
    {
      "inputs": [],
      "name": "system",
      "outputs": [
        {
          "internalType": "address",
          "name": "",
          "type": "address"
        }
      ],
      "stateMutability": "view",
      "type": "function",
      "constant": true
    },
    {
      "inputs": [
        {
          "internalType": "address",
          "name": "",
          "type": "address"
        }
      ],
      "name": "time",
      "outputs": [
        {
          "internalType": "uint256",
          "name": "",
          "type": "uint256"
        }
      ],
      "stateMutability": "view",
      "type": "function",
      "constant": true
    },
    {
      "inputs": [
        {
          "internalType": "address",
          "name": "",
          "type": "address"
        },
        {
          "internalType": "uint256",
          "name": "",
          "type": "uint256"
        }
      ],
      "name": "weightage",
      "outputs": [
        {
          "internalType": "uint256",
          "name": "",
          "type": "uint256"
        }
      ],
      "stateMutability": "view",
      "type": "function",
      "constant": true
    },
    {
      "inputs": [
        {
          "internalType": "address",
          "name": "_quizzer",
          "type": "address"
        },
        {
          "internalType": "uint256",
          "name": "_time",
          "type": "uint256"
        },
        {
          "internalType": "string[]",
          "name": "_questions",
          "type": "string[]"
        },
        {
          "internalType": "string[]",
          "name": "_answers",
          "type": "string[]"
        },
        {
          "internalType": "uint256[]",
          "name": "_weights",
          "type": "uint256[]"
        }
      ],
      "name": "startQuiz",
      "outputs": [],
      "stateMutability": "nonpayable",
      "type": "function"
    },
    {
      "inputs": [
        {
          "internalType": "address",
          "name": "_quizzer",
          "type": "address"
        },
        {
          "internalType": "string[]",
          "name": "_answers",
          "type": "string[]"
        }
      ],
      "name": "checkResult",
      "outputs": [
        {
          "internalType": "uint256",
          "name": "",
          "type": "uint256"
        },
        {
          "internalType": "uint256",
          "name": "",
          "type": "uint256"
        }
      ],
      "stateMutability": "nonpayable",
      "type": "function"
    }
  ],
  "bytecode": "0x608060405234801561001057600080fd5b5033600260006101000a81548173ffffffffffffffffffffffffffffffffffffffff021916908373ffffffffffffffffffffffffffffffffffffffff1602179055506110b7806100616000396000f3fe608060405234801561001057600080fd5b50600436106100935760003560e01c806395bf75fd1161006657806395bf75fd146101445780639725ac8b146101625780639b5f218214610192578063d9764bc8146101c2578063e6127e82146101f257610093565b80631b1a1e2414610098578063434420ff146100c85780637c67a3e2146100e45780638327109114610114575b600080fd5b6100b260048036038101906100ad9190610ba2565b610223565b6040516100bf9190610e9b565b60405180910390f35b6100e260048036038101906100dd9190610c5b565b61023b565b005b6100fe60048036038101906100f99190610ba2565b610513565b60405161010b9190610e9b565b60405180910390f35b61012e60048036038101906101299190610c1f565b61052b565b60405161013b9190610e79565b60405180910390f35b61014c6105e8565b6040516101599190610e5e565b60405180910390f35b61017c60048036038101906101779190610c1f565b61060e565b6040516101899190610e79565b60405180910390f35b6101ac60048036038101906101a79190610c1f565b6106cb565b6040516101b99190610e9b565b60405180910390f35b6101dc60048036038101906101d79190610ba2565b6106f0565b6040516101e99190610e9b565b60405180910390f35b61020c60048036038101906102079190610bcb565b610708565b60405161021a929190610eb6565b60405180910390f35b60016020528060005260406000206000915090505481565b836000808773ffffffffffffffffffffffffffffffffffffffff1673ffffffffffffffffffffffffffffffffffffffff168152602001908152602001600020819055506000600160008773ffffffffffffffffffffffffffffffffffffffff1673ffffffffffffffffffffffffffffffffffffffff168152602001908152602001600020819055506001825103600460008773ffffffffffffffffffffffffffffffffffffffff1673ffffffffffffffffffffffffffffffffffffffff1681526020019081526020016000208190555060008090505b600460008773ffffffffffffffffffffffffffffffffffffffff1673ffffffffffffffffffffffffffffffffffffffff1681526020019081526020016000205481116104bc5783818151811061036357fe5b6020026020010151600560008873ffffffffffffffffffffffffffffffffffffffff1673ffffffffffffffffffffffffffffffffffffffff168152602001908152602001600020600083815260200190815260200160002090805190602001906103ce929190610988565b508281815181106103db57fe5b6020026020010151600760008873ffffffffffffffffffffffffffffffffffffffff1673ffffffffffffffffffffffffffffffffffffffff16815260200190815260200160002060008381526020019081526020016000209080519060200190610446929190610988565b5081818151811061045357fe5b6020026020010151600660008873ffffffffffffffffffffffffffffffffffffffff1673ffffffffffffffffffffffffffffffffffffffff1681526020019081526020016000206000838152602001908152602001600020819055508080600101915050610311565b50600360008673ffffffffffffffffffffffffffffffffffffffff1673ffffffffffffffffffffffffffffffffffffffff168152602001908152602001600020600081548092919060010191905055505050505050565b60006020528060005260406000206000915090505481565b6005602052816000526040600020602052806000526040600020600091509150508054600181600116156101000203166002900480601f0160208091040260200160405190810160405280929190818152602001828054600181600116156101000203166002900480156105e05780601f106105b5576101008083540402835291602001916105e0565b820191906000526020600020905b8154815290600101906020018083116105c357829003601f168201915b505050505081565b600260009054906101000a900473ffffffffffffffffffffffffffffffffffffffff1681565b6007602052816000526040600020602052806000526040600020600091509150508054600181600116156101000203166002900480601f0160208091040260200160405190810160405280929190818152602001828054600181600116156101000203166002900480156106c35780601f10610698576101008083540402835291602001916106c3565b820191906000526020600020905b8154815290600101906020018083116106a657829003601f168201915b505050505081565b6006602052816000526040600020602052806000526040600020600091509150505481565b60036020528060005260406000206000915090505481565b6000806000600160008673ffffffffffffffffffffffffffffffffffffffff1673ffffffffffffffffffffffffffffffffffffffff1681526020019081526020016000208190555060008090505b600460008673ffffffffffffffffffffffffffffffffffffffff1673ffffffffffffffffffffffffffffffffffffffff1681526020019081526020016000205481116108fd578381815181106107a857fe5b60200260200101516040516020016107c09190610e30565b60405160208183030381529060405280519060200120600760008773ffffffffffffffffffffffffffffffffffffffff1673ffffffffffffffffffffffffffffffffffffffff16815260200190815260200160002060008381526020019081526020016000206040516020016108369190610e47565b6040516020818303038152906040528051906020012014156108f057600660008673ffffffffffffffffffffffffffffffffffffffff1673ffffffffffffffffffffffffffffffffffffffff168152602001908152602001600020600082815260200190815260200160002054600160008773ffffffffffffffffffffffffffffffffffffffff1673ffffffffffffffffffffffffffffffffffffffff168152602001908152602001600020600082825401925050819055505b8080600101915050610756565b50600160008573ffffffffffffffffffffffffffffffffffffffff1673ffffffffffffffffffffffffffffffffffffffff168152602001908152602001600020546000808673ffffffffffffffffffffffffffffffffffffffff1673ffffffffffffffffffffffffffffffffffffffff16815260200190815260200160002054915091509250929050565b828054600181600116156101000203166002900490600052602060002090601f016020900481019282601f106109c957805160ff19168380011785556109f7565b828001600101855582156109f7579182015b828111156109f65782518255916020019190600101906109db565b5b509050610a049190610a08565b5090565b610a2a91905b80821115610a26576000816000905550600101610a0e565b5090565b90565b600081359050610a3c81611053565b92915050565b600082601f830112610a5357600080fd5b8135610a66610a6182610f0c565b610edf565b9150818183526020840193506020810190508360005b83811015610aac5781358601610a928882610b39565b845260208401935060208301925050600181019050610a7c565b5050505092915050565b600082601f830112610ac757600080fd5b8135610ada610ad582610f34565b610edf565b91508181835260208401935060208101905083856020840282011115610aff57600080fd5b60005b83811015610b2f5781610b158882610b8d565b845260208401935060208301925050600181019050610b02565b5050505092915050565b600082601f830112610b4a57600080fd5b8135610b5d610b5882610f5c565b610edf565b91508082526020830160208301858383011115610b7957600080fd5b610b84838284611000565b50505092915050565b600081359050610b9c8161106a565b92915050565b600060208284031215610bb457600080fd5b6000610bc284828501610a2d565b91505092915050565b60008060408385031215610bde57600080fd5b6000610bec85828601610a2d565b925050602083013567ffffffffffffffff811115610c0957600080fd5b610c1585828601610a42565b9150509250929050565b60008060408385031215610c3257600080fd5b6000610c4085828601610a2d565b9250506020610c5185828601610b8d565b9150509250929050565b600080600080600060a08688031215610c7357600080fd5b6000610c8188828901610a2d565b9550506020610c9288828901610b8d565b945050604086013567ffffffffffffffff811115610caf57600080fd5b610cbb88828901610a42565b935050606086013567ffffffffffffffff811115610cd857600080fd5b610ce488828901610a42565b925050608086013567ffffffffffffffff811115610d0157600080fd5b610d0d88828901610ab6565b9150509295509295909350565b610d2381610fc4565b82525050565b6000610d3482610f9d565b610d3e8185610fa8565b9350610d4e81856020860161100f565b610d5781611042565b840191505092915050565b6000610d6d82610f9d565b610d778185610fb9565b9350610d8781856020860161100f565b80840191505092915050565b600081546001811660008114610db05760018114610dd557610e19565b607f6002830416610dc18187610fb9565b955060ff1983168652808601935050610e19565b60028204610de38187610fb9565b9550610dee85610f88565b60005b82811015610e1057815481890152600182019150602081019050610df1565b82880195505050505b505092915050565b610e2a81610ff6565b82525050565b6000610e3c8284610d62565b915081905092915050565b6000610e538284610d93565b915081905092915050565b6000602082019050610e736000830184610d1a565b92915050565b60006020820190508181036000830152610e938184610d29565b905092915050565b6000602082019050610eb06000830184610e21565b92915050565b6000604082019050610ecb6000830185610e21565b610ed86020830184610e21565b9392505050565b6000604051905081810181811067ffffffffffffffff82111715610f0257600080fd5b8060405250919050565b600067ffffffffffffffff821115610f2357600080fd5b602082029050602081019050919050565b600067ffffffffffffffff821115610f4b57600080fd5b602082029050602081019050919050565b600067ffffffffffffffff821115610f7357600080fd5b601f19601f8301169050602081019050919050565b60008190508160005260206000209050919050565b600081519050919050565b600082825260208201905092915050565b600081905092915050565b6000610fcf82610fd6565b9050919050565b600073ffffffffffffffffffffffffffffffffffffffff82169050919050565b6000819050919050565b82818337600083830152505050565b60005b8381101561102d578082015181840152602081019050611012565b8381111561103c576000848401525b50505050565b6000601f19601f8301169050919050565b61105c81610fc4565b811461106757600080fd5b50565b61107381610ff6565b811461107e57600080fd5b5056fea2646970667358221220b440227eaf180f155e28aafc213765144c151fd91f7b6abce9e4b1fe4625c3d564736f6c63430006060033",
  "immutableReferences": {},
  "source": "\r\npragma solidity ^0.6.0;\r\npragma experimental ABIEncoderV2;\r\n\r\ncontract QuizMaster{\r\n    mapping(address=>uint) public time;\r\n    mapping(address=>uint) public marks;\r\n    // time public dateTime;\r\n    address public system;\r\n    mapping(address=>uint256) public quizCount;\r\n    mapping(address=>uint) questionCount;\r\n    mapping(address=>mapping(uint=>string)) public questions;\r\n    mapping(address=>mapping(uint=>uint)) public weightage;\r\n    mapping(address=>mapping(uint=>string)) public answers;\r\n    \r\n    constructor() public{\r\n        system = msg.sender;\r\n    }\r\n    function startQuiz(address _quizzer, uint _time, string[] memory _questions, string[] memory _answers, uint[] memory _weights) public{\r\n        time[_quizzer] = _time;\r\n        marks[_quizzer] = 0;\r\n        questionCount[_quizzer] = _answers.length-1;\r\n        for(uint i=0;i<=questionCount[_quizzer];i++){\r\n            questions[_quizzer][i] = _questions[i];\r\n            answers[_quizzer][i] = _answers[i];\r\n            weightage[_quizzer][i] = _weights[i];\r\n        }\r\n        quizCount[_quizzer]++;\r\n    }\r\n    function checkResult(address _quizzer, string[] memory _answers) public returns(uint, uint){\r\n        marks[_quizzer] = 0;\r\n        for(uint i=0;i<=questionCount[_quizzer];i++){\r\n            if(keccak256(abi.encodePacked((answers[_quizzer][i]))) == keccak256(abi.encodePacked((_answers[i])))){\r\n                marks[_quizzer]+=weightage[_quizzer][i];\r\n            }\r\n        }\r\n        return (marks[_quizzer],time[_quizzer]);\r\n    }\r\n}",
  "sourcePath": "D:/Studies/Programming/Ethereum/Project/Research/quizz-eth/backend/contracts/QuizMaster.sol",
  "compiler": {
    "name": "solc",
    "version": "0.6.6+commit.6c089d02.Emscripten.clang"
  },
  "schemaVersion": "3.3.0",
  "updatedAt": "2020-10-11T05:49:35.987Z",
  "networkType": "ethereum",
  "devdoc": {
    "methods": {}
  },
  "userdoc": {
    "methods": {}
  }
}